{
  "contractName": "BibToken",
  "abi": [
    {
      "inputs": [],
      "stateMutability": "nonpayable",
      "type": "constructor"
    },
    {
      "anonymous": false,
      "inputs": [
        {
          "indexed": true,
          "internalType": "address",
          "name": "_owner",
          "type": "address"
        },
        {
          "indexed": true,
          "internalType": "address",
          "name": "_spender",
          "type": "address"
        },
        {
          "indexed": false,
          "internalType": "uint256",
          "name": "amount",
          "type": "uint256"
        }
      ],
      "name": "Approval",
      "type": "event"
    },
    {
      "anonymous": false,
      "inputs": [
        {
          "indexed": true,
          "internalType": "address",
          "name": "_from",
          "type": "address"
        },
        {
          "indexed": true,
          "internalType": "address",
          "name": "_to",
          "type": "address"
        },
        {
          "indexed": false,
          "internalType": "uint256",
          "name": "_amount",
          "type": "uint256"
        }
      ],
      "name": "Transfer",
      "type": "event"
    },
    {
      "inputs": [],
      "name": "decimals",
      "outputs": [
        {
          "internalType": "uint256",
          "name": "",
          "type": "uint256"
        }
      ],
      "stateMutability": "view",
      "type": "function"
    },
    {
      "inputs": [],
      "name": "owner",
      "outputs": [
        {
          "internalType": "address",
          "name": "",
          "type": "address"
        }
      ],
      "stateMutability": "view",
      "type": "function"
    },
    {
      "inputs": [],
      "name": "symbol",
      "outputs": [
        {
          "internalType": "string",
          "name": "",
          "type": "string"
        }
      ],
      "stateMutability": "view",
      "type": "function"
    },
    {
      "inputs": [],
      "name": "totalSupply",
      "outputs": [
        {
          "internalType": "uint256",
          "name": "",
          "type": "uint256"
        }
      ],
      "stateMutability": "view",
      "type": "function"
    },
    {
      "inputs": [
        {
          "internalType": "address",
          "name": "_owner",
          "type": "address"
        }
      ],
      "name": "balanceOf",
      "outputs": [
        {
          "internalType": "uint256",
          "name": "",
          "type": "uint256"
        }
      ],
      "stateMutability": "view",
      "type": "function"
    },
    {
      "inputs": [
        {
          "internalType": "address",
          "name": "_to",
          "type": "address"
        },
        {
          "internalType": "uint256",
          "name": "_amount",
          "type": "uint256"
        }
      ],
      "name": "transfer",
      "outputs": [
        {
          "internalType": "bool",
          "name": "",
          "type": "bool"
        }
      ],
      "stateMutability": "nonpayable",
      "type": "function"
    },
    {
      "inputs": [
        {
          "internalType": "address",
          "name": "_to",
          "type": "address"
        },
        {
          "internalType": "uint256",
          "name": "_amount",
          "type": "uint256"
        }
      ],
      "name": "approve",
      "outputs": [
        {
          "internalType": "bool",
          "name": "",
          "type": "bool"
        }
      ],
      "stateMutability": "nonpayable",
      "type": "function"
    },
    {
      "inputs": [
        {
          "internalType": "address",
          "name": "_sender",
          "type": "address"
        },
        {
          "internalType": "address",
          "name": "_recipient",
          "type": "address"
        },
        {
          "internalType": "uint256",
          "name": "_amount",
          "type": "uint256"
        }
      ],
      "name": "transferFrom",
      "outputs": [
        {
          "internalType": "bool",
          "name": "",
          "type": "bool"
        }
      ],
      "stateMutability": "nonpayable",
      "type": "function"
    }
  ],
  "bytecode": "0x608060405234801561001057600080fd5b5033600360006101000a81548173ffffffffffffffffffffffffffffffffffffffff021916908373ffffffffffffffffffffffffffffffffffffffff16021790555069d3c21bcecceda1000000600081905550600054600160003373ffffffffffffffffffffffffffffffffffffffff1673ffffffffffffffffffffffffffffffffffffffff16815260200190815260200160002081905550611095806100b86000396000f3fe608060405234801561001057600080fd5b50600436106100885760003560e01c806370a082311161005b57806370a08231146101295780638da5cb5b1461015957806395d89b4114610177578063a9059cbb1461019557610088565b8063095ea7b31461008d57806318160ddd146100bd57806323b872dd146100db578063313ce5671461010b575b600080fd5b6100a760048036038101906100a29190610c2e565b6101c5565b6040516100b49190610c89565b60405180910390f35b6100c56103c7565b6040516100d29190610cb3565b60405180910390f35b6100f560048036038101906100f09190610cce565b6103cd565b6040516101029190610c89565b60405180910390f35b6101136107b9565b6040516101209190610cb3565b60405180910390f35b610143600480360381019061013e9190610d21565b6107be565b6040516101509190610cb3565b60405180910390f35b610161610807565b60405161016e9190610d5d565b60405180910390f35b61017f61082d565b60405161018c9190610e11565b60405180910390f35b6101af60048036038101906101aa9190610c2e565b610866565b6040516101bc9190610c89565b60405180910390f35b600081600160003373ffffffffffffffffffffffffffffffffffffffff1673ffffffffffffffffffffffffffffffffffffffff168152602001908152602001600020541015610249576040517f08c379a000000000000000000000000000000000000000000000000000000000815260040161024090610e7f565b60405180910390fd5b6102d882600260003373ffffffffffffffffffffffffffffffffffffffff1673ffffffffffffffffffffffffffffffffffffffff16815260200190815260200160002060008673ffffffffffffffffffffffffffffffffffffffff1673ffffffffffffffffffffffffffffffffffffffff16815260200190815260200160002054610b4290919063ffffffff16565b600260003373ffffffffffffffffffffffffffffffffffffffff1673ffffffffffffffffffffffffffffffffffffffff16815260200190815260200160002060008573ffffffffffffffffffffffffffffffffffffffff1673ffffffffffffffffffffffffffffffffffffffff168152602001908152602001600020819055508273ffffffffffffffffffffffffffffffffffffffff163373ffffffffffffffffffffffffffffffffffffffff167f8c5be1e5ebec7d5bd14f71427d1e84f3dd0314c0f7b2291e5b200ac8c7c3b925846040516103b59190610cb3565b60405180910390a36001905092915050565b60005481565b600081600160008673ffffffffffffffffffffffffffffffffffffffff1673ffffffffffffffffffffffffffffffffffffffff168152602001908152602001600020541015610451576040517f08c379a000000000000000000000000000000000000000000000000000000000815260040161044890610eeb565b60405180910390fd5b81600260008673ffffffffffffffffffffffffffffffffffffffff1673ffffffffffffffffffffffffffffffffffffffff16815260200190815260200160002060008573ffffffffffffffffffffffffffffffffffffffff1673ffffffffffffffffffffffffffffffffffffffff168152602001908152602001600020541015610510576040517f08c379a000000000000000000000000000000000000000000000000000000000815260040161050790610f57565b60405180910390fd5b61056282600160008773ffffffffffffffffffffffffffffffffffffffff1673ffffffffffffffffffffffffffffffffffffffff16815260200190815260200160002054610b6e90919063ffffffff16565b600160008673ffffffffffffffffffffffffffffffffffffffff1673ffffffffffffffffffffffffffffffffffffffff168152602001908152602001600020819055506105f782600160008673ffffffffffffffffffffffffffffffffffffffff1673ffffffffffffffffffffffffffffffffffffffff16815260200190815260200160002054610b4290919063ffffffff16565b600160008573ffffffffffffffffffffffffffffffffffffffff1673ffffffffffffffffffffffffffffffffffffffff168152602001908152602001600020819055506106c982600260008773ffffffffffffffffffffffffffffffffffffffff1673ffffffffffffffffffffffffffffffffffffffff16815260200190815260200160002060008673ffffffffffffffffffffffffffffffffffffffff1673ffffffffffffffffffffffffffffffffffffffff16815260200190815260200160002054610b6e90919063ffffffff16565b600260008673ffffffffffffffffffffffffffffffffffffffff1673ffffffffffffffffffffffffffffffffffffffff16815260200190815260200160002060008573ffffffffffffffffffffffffffffffffffffffff1673ffffffffffffffffffffffffffffffffffffffff168152602001908152602001600020819055508273ffffffffffffffffffffffffffffffffffffffff168473ffffffffffffffffffffffffffffffffffffffff167fddf252ad1be2c89b69c2b068fc378daa952ba7f163c4a11628f55a4df523b3ef846040516107a69190610cb3565b60405180910390a3600190509392505050565b601281565b6000600160008373ffffffffffffffffffffffffffffffffffffffff1673ffffffffffffffffffffffffffffffffffffffff168152602001908152602001600020549050919050565b600360009054906101000a900473ffffffffffffffffffffffffffffffffffffffff1681565b6040518060400160405280600381526020017f424942000000000000000000000000000000000000000000000000000000000081525081565b600081600160003373ffffffffffffffffffffffffffffffffffffffff1673ffffffffffffffffffffffffffffffffffffffff1681526020019081526020016000205410156108ea576040517f08c379a00000000000000000000000000000000000000000000000000000000081526004016108e190610e7f565b60405180910390fd5b81600260003373ffffffffffffffffffffffffffffffffffffffff1673ffffffffffffffffffffffffffffffffffffffff16815260200190815260200160002060008573ffffffffffffffffffffffffffffffffffffffff1673ffffffffffffffffffffffffffffffffffffffff1681526020019081526020016000205410156109a9576040517f08c379a00000000000000000000000000000000000000000000000000000000081526004016109a090610f57565b60405180910390fd5b6109fb82600160003373ffffffffffffffffffffffffffffffffffffffff1673ffffffffffffffffffffffffffffffffffffffff16815260200190815260200160002054610b6e90919063ffffffff16565b600160003373ffffffffffffffffffffffffffffffffffffffff1673ffffffffffffffffffffffffffffffffffffffff16815260200190815260200160002081905550610a9082600160008673ffffffffffffffffffffffffffffffffffffffff1673ffffffffffffffffffffffffffffffffffffffff16815260200190815260200160002054610b4290919063ffffffff16565b600160008573ffffffffffffffffffffffffffffffffffffffff1673ffffffffffffffffffffffffffffffffffffffff168152602001908152602001600020819055508273ffffffffffffffffffffffffffffffffffffffff163373ffffffffffffffffffffffffffffffffffffffff167fddf252ad1be2c89b69c2b068fc378daa952ba7f163c4a11628f55a4df523b3ef84604051610b309190610cb3565b60405180910390a36001905092915050565b6000808284610b519190610fa6565b905083811015610b6457610b63610ffc565b5b8091505092915050565b600082821115610b8157610b80610ffc565b5b8183610b8d919061102b565b905092915050565b600080fd5b600073ffffffffffffffffffffffffffffffffffffffff82169050919050565b6000610bc582610b9a565b9050919050565b610bd581610bba565b8114610be057600080fd5b50565b600081359050610bf281610bcc565b92915050565b6000819050919050565b610c0b81610bf8565b8114610c1657600080fd5b50565b600081359050610c2881610c02565b92915050565b60008060408385031215610c4557610c44610b95565b5b6000610c5385828601610be3565b9250506020610c6485828601610c19565b9150509250929050565b60008115159050919050565b610c8381610c6e565b82525050565b6000602082019050610c9e6000830184610c7a565b92915050565b610cad81610bf8565b82525050565b6000602082019050610cc86000830184610ca4565b92915050565b600080600060608486031215610ce757610ce6610b95565b5b6000610cf586828701610be3565b9350506020610d0686828701610be3565b9250506040610d1786828701610c19565b9150509250925092565b600060208284031215610d3757610d36610b95565b5b6000610d4584828501610be3565b91505092915050565b610d5781610bba565b82525050565b6000602082019050610d726000830184610d4e565b92915050565b600081519050919050565b600082825260208201905092915050565b60005b83811015610db2578082015181840152602081019050610d97565b83811115610dc1576000848401525b50505050565b6000601f19601f8301169050919050565b6000610de382610d78565b610ded8185610d83565b9350610dfd818560208601610d94565b610e0681610dc7565b840191505092915050565b60006020820190508181036000830152610e2b8184610dd8565b905092915050565b7f496e73756666696369656e742062616c616e6365000000000000000000000000600082015250565b6000610e69601483610d83565b9150610e7482610e33565b602082019050919050565b60006020820190508181036000830152610e9881610e5c565b9050919050565b7f496e73756666696369656e742066756e64732e00000000000000000000000000600082015250565b6000610ed5601383610d83565b9150610ee082610e9f565b602082019050919050565b60006020820190508181036000830152610f0481610ec8565b9050919050565b7f556e617070726f766564207472616e73616374696f6e2e000000000000000000600082015250565b6000610f41601783610d83565b9150610f4c82610f0b565b602082019050919050565b60006020820190508181036000830152610f7081610f34565b9050919050565b7f4e487b7100000000000000000000000000000000000000000000000000000000600052601160045260246000fd5b6000610fb182610bf8565b9150610fbc83610bf8565b9250827fffffffffffffffffffffffffffffffffffffffffffffffffffffffffffffffff03821115610ff157610ff0610f77565b5b828201905092915050565b7f4e487b7100000000000000000000000000000000000000000000000000000000600052600160045260246000fd5b600061103682610bf8565b915061104183610bf8565b92508282101561105457611053610f77565b5b82820390509291505056fea264697066735822122002f0579ca157fe3cac6f0f28f74393523c98e9537172ac32c4a0a69155abee4e64736f6c634300080a0033",
  "immutableReferences": {},
  "source": "pragma solidity ^0.8.0;\n\n//This library guards integer overflow incase of huge numbers\nlibrary SafeMath {\n    function sub(uint256 a, uint256 b) internal pure returns (uint256) {\n        assert(b <= a);\n        return a - b;\n    }\n\n    function add(uint256 a, uint256 b) internal pure returns (uint256) {\n        uint256 c = a + b;\n        assert(c >= a);\n        return c;\n    }\n}\n\n//Since BibToken a ERC20 compliant token all the six methods and the events needs to be defined;\ncontract BibToken {\n    uint256 public totalSupply;\n    string public constant symbol = \"BIB\";\n    uint256 public constant decimals = 18;\n\n    mapping(address => uint256) balances;\n    mapping(address => mapping(address => uint256)) allowances;\n\n    address public owner;\n\n    event Approval(\n        address indexed _owner,\n        address indexed _spender,\n        uint256 amount\n    );\n\n    event Transfer(address indexed _from, address indexed _to, uint256 _amount);\n\n    using SafeMath for uint256;\n\n    constructor() {\n        owner = msg.sender;\n        totalSupply = 1000000000000000000000000;\n        balances[msg.sender] = totalSupply;\n    }\n\n    function balanceOf(address _owner) external view returns (uint256) {\n        return balances[_owner];\n    }\n\n    function transfer(address _to, uint256 _amount) public returns (bool) {\n        require(balances[msg.sender] >= _amount, \"Insufficient balance\");\n        require(\n            allowances[msg.sender][_to] >= _amount,\n            \"Unapproved transaction.\"\n        );\n        balances[msg.sender] = balances[msg.sender].sub(_amount);\n        balances[_to] = balances[_to].add(_amount);\n        emit Transfer(msg.sender, _to, _amount);\n        return true;\n    }\n\n    function approve(address _to, uint256 _amount) public returns (bool) {\n        require(balances[msg.sender] >= _amount, \"Insufficient balance\");\n        allowances[msg.sender][_to] = allowances[msg.sender][_to].add(_amount);\n        emit Approval(msg.sender, _to, _amount);\n        return true;\n    }\n\n    function transferFrom(\n        address _sender,\n        address _recipient,\n        uint256 _amount\n    ) external returns (bool) {\n        require(balances[_sender] >= _amount, \"Insufficient funds.\");\n        require(\n            allowances[_sender][_recipient] >= _amount,\n            \"Unapproved transaction.\"\n        );\n        balances[_sender] = balances[_sender].sub(_amount);\n        balances[_recipient] = balances[_recipient].add(_amount);\n        allowances[_sender][_recipient] = allowances[_sender][_recipient].sub(\n            _amount\n        );\n        emit Transfer(_sender, _recipient, _amount);\n        return true;\n    }\n}\n",
  "sourcePath": "/Users/bibhashsingh/Documents/BC_IMP/ERC20/bibtoken/contracts/BibToken.sol",
  "compiler": {
    "name": "solc",
    "version": "0.8.10+commit.fc410830.Emscripten.clang"
  },
  "schemaVersion": "3.4.3",
  "updatedAt": "2021-12-06T13:34:06.780Z",
  "devdoc": {
    "kind": "dev",
    "methods": {},
    "version": 1
  },
  "userdoc": {
    "kind": "user",
    "methods": {},
    "version": 1
  }
}