{
  "contractName": "BibToken",
  "abi": [
    {
      "inputs": [],
      "stateMutability": "nonpayable",
      "type": "constructor"
    },
    {
      "anonymous": false,
      "inputs": [
        {
          "indexed": true,
          "internalType": "address",
          "name": "_owner",
          "type": "address"
        },
        {
          "indexed": true,
          "internalType": "address",
          "name": "_spender",
          "type": "address"
        },
        {
          "indexed": false,
          "internalType": "uint256",
          "name": "amount",
          "type": "uint256"
        }
      ],
      "name": "Approval",
      "type": "event"
    },
    {
      "anonymous": false,
      "inputs": [
        {
          "indexed": true,
          "internalType": "address",
          "name": "_from",
          "type": "address"
        },
        {
          "indexed": true,
          "internalType": "address",
          "name": "_to",
          "type": "address"
        },
        {
          "indexed": false,
          "internalType": "uint256",
          "name": "_amount",
          "type": "uint256"
        }
      ],
      "name": "Transfer",
      "type": "event"
    },
    {
      "stateMutability": "payable",
      "type": "fallback",
      "payable": true
    },
    {
      "inputs": [],
      "name": "decimals",
      "outputs": [
        {
          "internalType": "uint256",
          "name": "",
          "type": "uint256"
        }
      ],
      "stateMutability": "view",
      "type": "function",
      "constant": true
    },
    {
      "inputs": [],
      "name": "name",
      "outputs": [
        {
          "internalType": "string",
          "name": "",
          "type": "string"
        }
      ],
      "stateMutability": "view",
      "type": "function",
      "constant": true
    },
    {
      "inputs": [],
      "name": "owner",
      "outputs": [
        {
          "internalType": "address",
          "name": "",
          "type": "address"
        }
      ],
      "stateMutability": "view",
      "type": "function",
      "constant": true
    },
    {
      "inputs": [],
      "name": "symbol",
      "outputs": [
        {
          "internalType": "string",
          "name": "",
          "type": "string"
        }
      ],
      "stateMutability": "view",
      "type": "function",
      "constant": true
    },
    {
      "inputs": [],
      "name": "totalSupply",
      "outputs": [
        {
          "internalType": "uint256",
          "name": "",
          "type": "uint256"
        }
      ],
      "stateMutability": "view",
      "type": "function",
      "constant": true
    },
    {
      "inputs": [
        {
          "internalType": "address",
          "name": "_owner",
          "type": "address"
        }
      ],
      "name": "balanceOf",
      "outputs": [
        {
          "internalType": "uint256",
          "name": "",
          "type": "uint256"
        }
      ],
      "stateMutability": "view",
      "type": "function",
      "constant": true
    },
    {
      "inputs": [
        {
          "internalType": "address",
          "name": "_to",
          "type": "address"
        },
        {
          "internalType": "uint256",
          "name": "_amount",
          "type": "uint256"
        }
      ],
      "name": "transfer",
      "outputs": [
        {
          "internalType": "bool",
          "name": "",
          "type": "bool"
        }
      ],
      "stateMutability": "nonpayable",
      "type": "function"
    },
    {
      "inputs": [
        {
          "internalType": "address",
          "name": "_to",
          "type": "address"
        },
        {
          "internalType": "uint256",
          "name": "_amount",
          "type": "uint256"
        }
      ],
      "name": "approve",
      "outputs": [
        {
          "internalType": "bool",
          "name": "",
          "type": "bool"
        }
      ],
      "stateMutability": "nonpayable",
      "type": "function"
    },
    {
      "inputs": [
        {
          "internalType": "address",
          "name": "_sender",
          "type": "address"
        },
        {
          "internalType": "address",
          "name": "_recipient",
          "type": "address"
        },
        {
          "internalType": "uint256",
          "name": "_amount",
          "type": "uint256"
        }
      ],
      "name": "transferFrom",
      "outputs": [
        {
          "internalType": "bool",
          "name": "",
          "type": "bool"
        }
      ],
      "stateMutability": "nonpayable",
      "type": "function"
    }
  ],
  "bytecode": "0x608060405234801561001057600080fd5b5033600360006101000a81548173ffffffffffffffffffffffffffffffffffffffff021916908373ffffffffffffffffffffffffffffffffffffffff16021790555069d3c21bcecceda1000000600081905550600054600160003373ffffffffffffffffffffffffffffffffffffffff1673ffffffffffffffffffffffffffffffffffffffff16815260200190815260200160002081905550611164806100b86000396000f3fe60806040526004361061008a5760003560e01c8063313ce56711610059578063313ce5671461016057806370a082311461018b5780638da5cb5b146101c857806395d89b41146101f3578063a9059cbb1461021e5761008b565b806306fdde0314610090578063095ea7b3146100bb57806318160ddd146100f857806323b872dd146101235761008b565b5b600080fd5b34801561009c57600080fd5b506100a561025b565b6040516100b29190610cfd565b60405180910390f35b3480156100c757600080fd5b506100e260048036038101906100dd9190610db8565b610294565b6040516100ef9190610e13565b60405180910390f35b34801561010457600080fd5b5061010d610496565b60405161011a9190610e3d565b60405180910390f35b34801561012f57600080fd5b5061014a60048036038101906101459190610e58565b61049c565b6040516101579190610e13565b60405180910390f35b34801561016c57600080fd5b50610175610888565b6040516101829190610e3d565b60405180910390f35b34801561019757600080fd5b506101b260048036038101906101ad9190610eab565b61088d565b6040516101bf9190610e3d565b60405180910390f35b3480156101d457600080fd5b506101dd6108d6565b6040516101ea9190610ee7565b60405180910390f35b3480156101ff57600080fd5b506102086108fc565b6040516102159190610cfd565b60405180910390f35b34801561022a57600080fd5b5061024560048036038101906102409190610db8565b610935565b6040516102529190610e13565b60405180910390f35b6040518060400160405280600c81526020017f4269626861736820636f696e000000000000000000000000000000000000000081525081565b600081600160003373ffffffffffffffffffffffffffffffffffffffff1673ffffffffffffffffffffffffffffffffffffffff168152602001908152602001600020541015610318576040517f08c379a000000000000000000000000000000000000000000000000000000000815260040161030f90610f4e565b60405180910390fd5b6103a782600260003373ffffffffffffffffffffffffffffffffffffffff1673ffffffffffffffffffffffffffffffffffffffff16815260200190815260200160002060008673ffffffffffffffffffffffffffffffffffffffff1673ffffffffffffffffffffffffffffffffffffffff16815260200190815260200160002054610c1190919063ffffffff16565b600260003373ffffffffffffffffffffffffffffffffffffffff1673ffffffffffffffffffffffffffffffffffffffff16815260200190815260200160002060008573ffffffffffffffffffffffffffffffffffffffff1673ffffffffffffffffffffffffffffffffffffffff168152602001908152602001600020819055508273ffffffffffffffffffffffffffffffffffffffff163373ffffffffffffffffffffffffffffffffffffffff167f8c5be1e5ebec7d5bd14f71427d1e84f3dd0314c0f7b2291e5b200ac8c7c3b925846040516104849190610e3d565b60405180910390a36001905092915050565b60005481565b600081600160008673ffffffffffffffffffffffffffffffffffffffff1673ffffffffffffffffffffffffffffffffffffffff168152602001908152602001600020541015610520576040517f08c379a000000000000000000000000000000000000000000000000000000000815260040161051790610fba565b60405180910390fd5b81600260008673ffffffffffffffffffffffffffffffffffffffff1673ffffffffffffffffffffffffffffffffffffffff16815260200190815260200160002060008573ffffffffffffffffffffffffffffffffffffffff1673ffffffffffffffffffffffffffffffffffffffff1681526020019081526020016000205410156105df576040517f08c379a00000000000000000000000000000000000000000000000000000000081526004016105d690611026565b60405180910390fd5b61063182600160008773ffffffffffffffffffffffffffffffffffffffff1673ffffffffffffffffffffffffffffffffffffffff16815260200190815260200160002054610c3d90919063ffffffff16565b600160008673ffffffffffffffffffffffffffffffffffffffff1673ffffffffffffffffffffffffffffffffffffffff168152602001908152602001600020819055506106c682600160008673ffffffffffffffffffffffffffffffffffffffff1673ffffffffffffffffffffffffffffffffffffffff16815260200190815260200160002054610c1190919063ffffffff16565b600160008573ffffffffffffffffffffffffffffffffffffffff1673ffffffffffffffffffffffffffffffffffffffff1681526020019081526020016000208190555061079882600260008773ffffffffffffffffffffffffffffffffffffffff1673ffffffffffffffffffffffffffffffffffffffff16815260200190815260200160002060008673ffffffffffffffffffffffffffffffffffffffff1673ffffffffffffffffffffffffffffffffffffffff16815260200190815260200160002054610c3d90919063ffffffff16565b600260008673ffffffffffffffffffffffffffffffffffffffff1673ffffffffffffffffffffffffffffffffffffffff16815260200190815260200160002060008573ffffffffffffffffffffffffffffffffffffffff1673ffffffffffffffffffffffffffffffffffffffff168152602001908152602001600020819055508273ffffffffffffffffffffffffffffffffffffffff168473ffffffffffffffffffffffffffffffffffffffff167fddf252ad1be2c89b69c2b068fc378daa952ba7f163c4a11628f55a4df523b3ef846040516108759190610e3d565b60405180910390a3600190509392505050565b601281565b6000600160008373ffffffffffffffffffffffffffffffffffffffff1673ffffffffffffffffffffffffffffffffffffffff168152602001908152602001600020549050919050565b600360009054906101000a900473ffffffffffffffffffffffffffffffffffffffff1681565b6040518060400160405280600381526020017f424942000000000000000000000000000000000000000000000000000000000081525081565b600081600160003373ffffffffffffffffffffffffffffffffffffffff1673ffffffffffffffffffffffffffffffffffffffff1681526020019081526020016000205410156109b9576040517f08c379a00000000000000000000000000000000000000000000000000000000081526004016109b090610f4e565b60405180910390fd5b81600260003373ffffffffffffffffffffffffffffffffffffffff1673ffffffffffffffffffffffffffffffffffffffff16815260200190815260200160002060008573ffffffffffffffffffffffffffffffffffffffff1673ffffffffffffffffffffffffffffffffffffffff168152602001908152602001600020541015610a78576040517f08c379a0000000000000000000000000000000000000000000000000000000008152600401610a6f90611026565b60405180910390fd5b610aca82600160003373ffffffffffffffffffffffffffffffffffffffff1673ffffffffffffffffffffffffffffffffffffffff16815260200190815260200160002054610c3d90919063ffffffff16565b600160003373ffffffffffffffffffffffffffffffffffffffff1673ffffffffffffffffffffffffffffffffffffffff16815260200190815260200160002081905550610b5f82600160008673ffffffffffffffffffffffffffffffffffffffff1673ffffffffffffffffffffffffffffffffffffffff16815260200190815260200160002054610c1190919063ffffffff16565b600160008573ffffffffffffffffffffffffffffffffffffffff1673ffffffffffffffffffffffffffffffffffffffff168152602001908152602001600020819055508273ffffffffffffffffffffffffffffffffffffffff163373ffffffffffffffffffffffffffffffffffffffff167fddf252ad1be2c89b69c2b068fc378daa952ba7f163c4a11628f55a4df523b3ef84604051610bff9190610e3d565b60405180910390a36001905092915050565b6000808284610c209190611075565b905083811015610c3357610c326110cb565b5b8091505092915050565b600082821115610c5057610c4f6110cb565b5b8183610c5c91906110fa565b905092915050565b600081519050919050565b600082825260208201905092915050565b60005b83811015610c9e578082015181840152602081019050610c83565b83811115610cad576000848401525b50505050565b6000601f19601f8301169050919050565b6000610ccf82610c64565b610cd98185610c6f565b9350610ce9818560208601610c80565b610cf281610cb3565b840191505092915050565b60006020820190508181036000830152610d178184610cc4565b905092915050565b600080fd5b600073ffffffffffffffffffffffffffffffffffffffff82169050919050565b6000610d4f82610d24565b9050919050565b610d5f81610d44565b8114610d6a57600080fd5b50565b600081359050610d7c81610d56565b92915050565b6000819050919050565b610d9581610d82565b8114610da057600080fd5b50565b600081359050610db281610d8c565b92915050565b60008060408385031215610dcf57610dce610d1f565b5b6000610ddd85828601610d6d565b9250506020610dee85828601610da3565b9150509250929050565b60008115159050919050565b610e0d81610df8565b82525050565b6000602082019050610e286000830184610e04565b92915050565b610e3781610d82565b82525050565b6000602082019050610e526000830184610e2e565b92915050565b600080600060608486031215610e7157610e70610d1f565b5b6000610e7f86828701610d6d565b9350506020610e9086828701610d6d565b9250506040610ea186828701610da3565b9150509250925092565b600060208284031215610ec157610ec0610d1f565b5b6000610ecf84828501610d6d565b91505092915050565b610ee181610d44565b82525050565b6000602082019050610efc6000830184610ed8565b92915050565b7f496e73756666696369656e742062616c616e6365000000000000000000000000600082015250565b6000610f38601483610c6f565b9150610f4382610f02565b602082019050919050565b60006020820190508181036000830152610f6781610f2b565b9050919050565b7f496e73756666696369656e742066756e64732e00000000000000000000000000600082015250565b6000610fa4601383610c6f565b9150610faf82610f6e565b602082019050919050565b60006020820190508181036000830152610fd381610f97565b9050919050565b7f556e617070726f766564207472616e73616374696f6e2e000000000000000000600082015250565b6000611010601783610c6f565b915061101b82610fda565b602082019050919050565b6000602082019050818103600083015261103f81611003565b9050919050565b7f4e487b7100000000000000000000000000000000000000000000000000000000600052601160045260246000fd5b600061108082610d82565b915061108b83610d82565b9250827fffffffffffffffffffffffffffffffffffffffffffffffffffffffffffffffff038211156110c0576110bf611046565b5b828201905092915050565b7f4e487b7100000000000000000000000000000000000000000000000000000000600052600160045260246000fd5b600061110582610d82565b915061111083610d82565b92508282101561112357611122611046565b5b82820390509291505056fea26469706673582212200bf182645786fd7712a4c56d19834ce0071a6e688839d2d119e45f88b411e47864736f6c634300080a0033",
  "immutableReferences": {},
  "source": "pragma solidity ^0.8.0;\n\n//This library guards integer overflow incase of huge numbers\nlibrary SafeMath {\n    function sub(uint256 a, uint256 b) internal pure returns (uint256) {\n        assert(b <= a);\n        return a - b;\n    }\n\n    function add(uint256 a, uint256 b) internal pure returns (uint256) {\n        uint256 c = a + b;\n        assert(c >= a);\n        return c;\n    }\n}\n\n//Since BibToken a ERC20 compliant token all the six methods and the events needs to be defined;\ncontract BibToken {\n    uint256 public totalSupply;\n    string public constant symbol = \"BIB\";\n    string public constant name = \"Bibhash coin\";\n    uint256 public constant decimals = 18;\n\n    mapping(address => uint256) balances;\n    mapping(address => mapping(address => uint256)) allowances;\n\n    address public owner;\n\n    event Approval(\n        address indexed _owner,\n        address indexed _spender,\n        uint256 amount\n    );\n\n    event Transfer(address indexed _from, address indexed _to, uint256 _amount);\n\n    using SafeMath for uint256;\n\n    constructor() {\n        owner = msg.sender;\n        totalSupply = 1000000000000000000000000;\n        balances[msg.sender] = totalSupply;\n    }\n\n    function balanceOf(address _owner) external view returns (uint256) {\n        return balances[_owner];\n    }\n\n    function transfer(address _to, uint256 _amount) public returns (bool) {\n        require(balances[msg.sender] >= _amount, \"Insufficient balance\");\n        require(\n            allowances[msg.sender][_to] >= _amount,\n            \"Unapproved transaction.\"\n        );\n        balances[msg.sender] = balances[msg.sender].sub(_amount);\n        balances[_to] = balances[_to].add(_amount);\n        emit Transfer(msg.sender, _to, _amount);\n        return true;\n    }\n\n    function approve(address _to, uint256 _amount) public returns (bool) {\n        require(balances[msg.sender] >= _amount, \"Insufficient balance\");\n        allowances[msg.sender][_to] = allowances[msg.sender][_to].add(_amount);\n        emit Approval(msg.sender, _to, _amount);\n        return true;\n    }\n\n    function transferFrom(\n        address _sender,\n        address _recipient,\n        uint256 _amount\n    ) external returns (bool) {\n        require(balances[_sender] >= _amount, \"Insufficient funds.\");\n        require(\n            allowances[_sender][_recipient] >= _amount,\n            \"Unapproved transaction.\"\n        );\n        balances[_sender] = balances[_sender].sub(_amount);\n        balances[_recipient] = balances[_recipient].add(_amount);\n        allowances[_sender][_recipient] = allowances[_sender][_recipient].sub(\n            _amount\n        );\n        emit Transfer(_sender, _recipient, _amount);\n        return true;\n    }\n\n    // fallback functions\n    fallback() external payable {\n        revert();\n    }\n}\n",
  "sourcePath": "/Users/bibhashsingh/Documents/BC_IMP/ERC20/bibtoken/contracts/BibToken.sol",
  "compiler": {
    "name": "solc",
    "version": "0.8.10+commit.fc410830.Emscripten.clang"
  },
  "schemaVersion": "3.4.3",
  "updatedAt": "2021-12-07T14:39:47.475Z",
  "networkType": "ethereum",
  "devdoc": {
    "kind": "dev",
    "methods": {},
    "version": 1
  },
  "userdoc": {
    "kind": "user",
    "methods": {},
    "version": 1
  }
}