{
  "contractName": "BibToken",
  "abi": [
    {
      "inputs": [],
      "stateMutability": "nonpayable",
      "type": "constructor"
    },
    {
      "anonymous": false,
      "inputs": [
        {
          "indexed": true,
          "internalType": "address",
          "name": "_owner",
          "type": "address"
        },
        {
          "indexed": true,
          "internalType": "address",
          "name": "_spender",
          "type": "address"
        },
        {
          "indexed": false,
          "internalType": "uint256",
          "name": "amount",
          "type": "uint256"
        }
      ],
      "name": "Approval",
      "type": "event"
    },
    {
      "anonymous": false,
      "inputs": [
        {
          "indexed": true,
          "internalType": "address",
          "name": "_from",
          "type": "address"
        },
        {
          "indexed": true,
          "internalType": "address",
          "name": "_to",
          "type": "address"
        },
        {
          "indexed": false,
          "internalType": "uint256",
          "name": "_amount",
          "type": "uint256"
        }
      ],
      "name": "Transfer",
      "type": "event"
    },
    {
      "stateMutability": "payable",
      "type": "fallback",
      "payable": true
    },
    {
      "inputs": [],
      "name": "decimals",
      "outputs": [
        {
          "internalType": "uint256",
          "name": "",
          "type": "uint256"
        }
      ],
      "stateMutability": "view",
      "type": "function",
      "constant": true
    },
    {
      "inputs": [],
      "name": "name",
      "outputs": [
        {
          "internalType": "string",
          "name": "",
          "type": "string"
        }
      ],
      "stateMutability": "view",
      "type": "function",
      "constant": true
    },
    {
      "inputs": [],
      "name": "owner",
      "outputs": [
        {
          "internalType": "address",
          "name": "",
          "type": "address"
        }
      ],
      "stateMutability": "view",
      "type": "function",
      "constant": true
    },
    {
      "inputs": [],
      "name": "symbol",
      "outputs": [
        {
          "internalType": "string",
          "name": "",
          "type": "string"
        }
      ],
      "stateMutability": "view",
      "type": "function",
      "constant": true
    },
    {
      "inputs": [],
      "name": "totalSupply",
      "outputs": [
        {
          "internalType": "uint256",
          "name": "",
          "type": "uint256"
        }
      ],
      "stateMutability": "view",
      "type": "function",
      "constant": true
    },
    {
      "inputs": [
        {
          "internalType": "address",
          "name": "_owner",
          "type": "address"
        }
      ],
      "name": "balanceOf",
      "outputs": [
        {
          "internalType": "uint256",
          "name": "",
          "type": "uint256"
        }
      ],
      "stateMutability": "view",
      "type": "function",
      "constant": true
    },
    {
      "inputs": [
        {
          "internalType": "address",
          "name": "_to",
          "type": "address"
        },
        {
          "internalType": "uint256",
          "name": "_amount",
          "type": "uint256"
        }
      ],
      "name": "transfer",
      "outputs": [
        {
          "internalType": "bool",
          "name": "",
          "type": "bool"
        }
      ],
      "stateMutability": "nonpayable",
      "type": "function"
    },
    {
      "inputs": [
        {
          "internalType": "address",
          "name": "_to",
          "type": "address"
        },
        {
          "internalType": "uint256",
          "name": "_amount",
          "type": "uint256"
        }
      ],
      "name": "approve",
      "outputs": [
        {
          "internalType": "bool",
          "name": "",
          "type": "bool"
        }
      ],
      "stateMutability": "nonpayable",
      "type": "function"
    },
    {
      "inputs": [
        {
          "internalType": "address",
          "name": "_sender",
          "type": "address"
        },
        {
          "internalType": "address",
          "name": "_recipient",
          "type": "address"
        },
        {
          "internalType": "uint256",
          "name": "_amount",
          "type": "uint256"
        }
      ],
      "name": "transferFrom",
      "outputs": [
        {
          "internalType": "bool",
          "name": "",
          "type": "bool"
        }
      ],
      "stateMutability": "nonpayable",
      "type": "function"
    }
  ],
  "bytecode": "0x608060405234801561001057600080fd5b5033600360006101000a81548173ffffffffffffffffffffffffffffffffffffffff021916908373ffffffffffffffffffffffffffffffffffffffff16021790555069d3c21bcecceda1000000600081905550600054600160003373ffffffffffffffffffffffffffffffffffffffff1673ffffffffffffffffffffffffffffffffffffffff16815260200190815260200160002081905550611027806100b86000396000f3fe60806040526004361061008a5760003560e01c8063313ce56711610059578063313ce5671461016057806370a082311461018b5780638da5cb5b146101c857806395d89b41146101f3578063a9059cbb1461021e5761008b565b806306fdde0314610090578063095ea7b3146100bb57806318160ddd146100f857806323b872dd146101235761008b565b5b600080fd5b34801561009c57600080fd5b506100a561025b565b6040516100b29190610bc0565b60405180910390f35b3480156100c757600080fd5b506100e260048036038101906100dd9190610c7b565b610294565b6040516100ef9190610cd6565b60405180910390f35b34801561010457600080fd5b5061010d610496565b60405161011a9190610d00565b60405180910390f35b34801561012f57600080fd5b5061014a60048036038101906101459190610d1b565b61049c565b6040516101579190610cd6565b60405180910390f35b34801561016c57600080fd5b50610175610888565b6040516101829190610d00565b60405180910390f35b34801561019757600080fd5b506101b260048036038101906101ad9190610d6e565b61088d565b6040516101bf9190610d00565b60405180910390f35b3480156101d457600080fd5b506101dd6108d6565b6040516101ea9190610daa565b60405180910390f35b3480156101ff57600080fd5b506102086108fc565b6040516102159190610bc0565b60405180910390f35b34801561022a57600080fd5b5061024560048036038101906102409190610c7b565b610935565b6040516102529190610cd6565b60405180910390f35b6040518060400160405280600c81526020017f4269626861736820636f696e000000000000000000000000000000000000000081525081565b600081600160003373ffffffffffffffffffffffffffffffffffffffff1673ffffffffffffffffffffffffffffffffffffffff168152602001908152602001600020541015610318576040517f08c379a000000000000000000000000000000000000000000000000000000000815260040161030f90610e11565b60405180910390fd5b6103a782600260003373ffffffffffffffffffffffffffffffffffffffff1673ffffffffffffffffffffffffffffffffffffffff16815260200190815260200160002060008673ffffffffffffffffffffffffffffffffffffffff1673ffffffffffffffffffffffffffffffffffffffff16815260200190815260200160002054610ad490919063ffffffff16565b600260003373ffffffffffffffffffffffffffffffffffffffff1673ffffffffffffffffffffffffffffffffffffffff16815260200190815260200160002060008573ffffffffffffffffffffffffffffffffffffffff1673ffffffffffffffffffffffffffffffffffffffff168152602001908152602001600020819055508273ffffffffffffffffffffffffffffffffffffffff163373ffffffffffffffffffffffffffffffffffffffff167f8c5be1e5ebec7d5bd14f71427d1e84f3dd0314c0f7b2291e5b200ac8c7c3b925846040516104849190610d00565b60405180910390a36001905092915050565b60005481565b600081600160008673ffffffffffffffffffffffffffffffffffffffff1673ffffffffffffffffffffffffffffffffffffffff168152602001908152602001600020541015610520576040517f08c379a000000000000000000000000000000000000000000000000000000000815260040161051790610e7d565b60405180910390fd5b81600260008673ffffffffffffffffffffffffffffffffffffffff1673ffffffffffffffffffffffffffffffffffffffff16815260200190815260200160002060008573ffffffffffffffffffffffffffffffffffffffff1673ffffffffffffffffffffffffffffffffffffffff1681526020019081526020016000205410156105df576040517f08c379a00000000000000000000000000000000000000000000000000000000081526004016105d690610ee9565b60405180910390fd5b61063182600160008773ffffffffffffffffffffffffffffffffffffffff1673ffffffffffffffffffffffffffffffffffffffff16815260200190815260200160002054610b0090919063ffffffff16565b600160008673ffffffffffffffffffffffffffffffffffffffff1673ffffffffffffffffffffffffffffffffffffffff168152602001908152602001600020819055506106c682600160008673ffffffffffffffffffffffffffffffffffffffff1673ffffffffffffffffffffffffffffffffffffffff16815260200190815260200160002054610ad490919063ffffffff16565b600160008573ffffffffffffffffffffffffffffffffffffffff1673ffffffffffffffffffffffffffffffffffffffff1681526020019081526020016000208190555061079882600260008773ffffffffffffffffffffffffffffffffffffffff1673ffffffffffffffffffffffffffffffffffffffff16815260200190815260200160002060008673ffffffffffffffffffffffffffffffffffffffff1673ffffffffffffffffffffffffffffffffffffffff16815260200190815260200160002054610b0090919063ffffffff16565b600260008673ffffffffffffffffffffffffffffffffffffffff1673ffffffffffffffffffffffffffffffffffffffff16815260200190815260200160002060008573ffffffffffffffffffffffffffffffffffffffff1673ffffffffffffffffffffffffffffffffffffffff168152602001908152602001600020819055508273ffffffffffffffffffffffffffffffffffffffff168473ffffffffffffffffffffffffffffffffffffffff167fddf252ad1be2c89b69c2b068fc378daa952ba7f163c4a11628f55a4df523b3ef846040516108759190610d00565b60405180910390a3600190509392505050565b601281565b6000600160008373ffffffffffffffffffffffffffffffffffffffff1673ffffffffffffffffffffffffffffffffffffffff168152602001908152602001600020549050919050565b600360009054906101000a900473ffffffffffffffffffffffffffffffffffffffff1681565b6040518060400160405280600381526020017f424942000000000000000000000000000000000000000000000000000000000081525081565b600081600160003373ffffffffffffffffffffffffffffffffffffffff1673ffffffffffffffffffffffffffffffffffffffff1681526020019081526020016000205410156109b9576040517f08c379a00000000000000000000000000000000000000000000000000000000081526004016109b090610e11565b60405180910390fd5b81600160003373ffffffffffffffffffffffffffffffffffffffff1673ffffffffffffffffffffffffffffffffffffffff1681526020019081526020016000206000828254610a089190610f38565b9250508190555081600160008573ffffffffffffffffffffffffffffffffffffffff1673ffffffffffffffffffffffffffffffffffffffff1681526020019081526020016000206000828254610a5e9190610f6c565b925050819055508273ffffffffffffffffffffffffffffffffffffffff163373ffffffffffffffffffffffffffffffffffffffff167fddf252ad1be2c89b69c2b068fc378daa952ba7f163c4a11628f55a4df523b3ef84604051610ac29190610d00565b60405180910390a36001905092915050565b6000808284610ae39190610f6c565b905083811015610af657610af5610fc2565b5b8091505092915050565b600082821115610b1357610b12610fc2565b5b8183610b1f9190610f38565b905092915050565b600081519050919050565b600082825260208201905092915050565b60005b83811015610b61578082015181840152602081019050610b46565b83811115610b70576000848401525b50505050565b6000601f19601f8301169050919050565b6000610b9282610b27565b610b9c8185610b32565b9350610bac818560208601610b43565b610bb581610b76565b840191505092915050565b60006020820190508181036000830152610bda8184610b87565b905092915050565b600080fd5b600073ffffffffffffffffffffffffffffffffffffffff82169050919050565b6000610c1282610be7565b9050919050565b610c2281610c07565b8114610c2d57600080fd5b50565b600081359050610c3f81610c19565b92915050565b6000819050919050565b610c5881610c45565b8114610c6357600080fd5b50565b600081359050610c7581610c4f565b92915050565b60008060408385031215610c9257610c91610be2565b5b6000610ca085828601610c30565b9250506020610cb185828601610c66565b9150509250929050565b60008115159050919050565b610cd081610cbb565b82525050565b6000602082019050610ceb6000830184610cc7565b92915050565b610cfa81610c45565b82525050565b6000602082019050610d156000830184610cf1565b92915050565b600080600060608486031215610d3457610d33610be2565b5b6000610d4286828701610c30565b9350506020610d5386828701610c30565b9250506040610d6486828701610c66565b9150509250925092565b600060208284031215610d8457610d83610be2565b5b6000610d9284828501610c30565b91505092915050565b610da481610c07565b82525050565b6000602082019050610dbf6000830184610d9b565b92915050565b7f496e73756666696369656e742062616c616e6365000000000000000000000000600082015250565b6000610dfb601483610b32565b9150610e0682610dc5565b602082019050919050565b60006020820190508181036000830152610e2a81610dee565b9050919050565b7f496e73756666696369656e742066756e64732e00000000000000000000000000600082015250565b6000610e67601383610b32565b9150610e7282610e31565b602082019050919050565b60006020820190508181036000830152610e9681610e5a565b9050919050565b7f556e617070726f766564207472616e73616374696f6e2e000000000000000000600082015250565b6000610ed3601783610b32565b9150610ede82610e9d565b602082019050919050565b60006020820190508181036000830152610f0281610ec6565b9050919050565b7f4e487b7100000000000000000000000000000000000000000000000000000000600052601160045260246000fd5b6000610f4382610c45565b9150610f4e83610c45565b925082821015610f6157610f60610f09565b5b828203905092915050565b6000610f7782610c45565b9150610f8283610c45565b9250827fffffffffffffffffffffffffffffffffffffffffffffffffffffffffffffffff03821115610fb757610fb6610f09565b5b828201905092915050565b7f4e487b7100000000000000000000000000000000000000000000000000000000600052600160045260246000fdfea2646970667358221220bdc73677dcc1d2f3df99f61d75ce08d5d38de35731ef453a8609ea8ce596627e64736f6c634300080a0033",
  "immutableReferences": {},
  "source": "pragma solidity ^0.8.0;\n\n//This library guards integer overflow incase of huge numbers\nlibrary SafeMath {\n    function sub(uint256 a, uint256 b) internal pure returns (uint256) {\n        assert(b <= a);\n        return a - b;\n    }\n\n    function add(uint256 a, uint256 b) internal pure returns (uint256) {\n        uint256 c = a + b;\n        assert(c >= a);\n        return c;\n    }\n}\n\n//Since BibToken a ERC20 compliant token all the six methods and the events needs to be defined;\ncontract BibToken {\n    uint256 public totalSupply;\n    string public constant symbol = \"BIB\";\n    string public constant name = \"Bibhash coin\";\n    uint256 public constant decimals = 18;\n\n    mapping(address => uint256) balances;\n    mapping(address => mapping(address => uint256)) allowances;\n\n    address public owner;\n\n    event Approval(\n        address indexed _owner,\n        address indexed _spender,\n        uint256 amount\n    );\n\n    event Transfer(address indexed _from, address indexed _to, uint256 _amount);\n\n    using SafeMath for uint256;\n\n    constructor() {\n        owner = msg.sender;\n        totalSupply = 1000000000000000000000000;\n        balances[msg.sender] = totalSupply;\n    }\n\n    function balanceOf(address _owner) external view returns (uint256) {\n        return balances[_owner];\n    }\n\n    function transfer(address _to, uint256 _amount) public returns (bool) {\n        require(balances[msg.sender] >= _amount, \"Insufficient balance\");\n        // require(\n        //     allowances[msg.sender][_to] >= _amount,\n        //     \"Unapproved transaction.\"\n        // );\n        // balances[msg.sender] = balances[msg.sender].sub(_amount);\n        // balances[_to] = balances[_to].add(_amount);\n        balances[msg.sender] -= _amount;\n        balances[_to] += _amount;\n        emit Transfer(msg.sender, _to, _amount);\n        return true;\n    }\n\n    function approve(address _to, uint256 _amount) public returns (bool) {\n        require(balances[msg.sender] >= _amount, \"Insufficient balance\");\n        allowances[msg.sender][_to] = allowances[msg.sender][_to].add(_amount);\n        emit Approval(msg.sender, _to, _amount);\n        return true;\n    }\n\n    function transferFrom(\n        address _sender,\n        address _recipient,\n        uint256 _amount\n    ) external returns (bool) {\n        require(balances[_sender] >= _amount, \"Insufficient funds.\");\n        require(\n            allowances[_sender][_recipient] >= _amount,\n            \"Unapproved transaction.\"\n        );\n        balances[_sender] = balances[_sender].sub(_amount);\n        balances[_recipient] = balances[_recipient].add(_amount);\n        allowances[_sender][_recipient] = allowances[_sender][_recipient].sub(\n            _amount\n        );\n        emit Transfer(_sender, _recipient, _amount);\n        return true;\n    }\n\n    // fallback functions\n    fallback() external payable {\n        revert();\n    }\n}\n",
  "sourcePath": "/Users/bibhashsingh/Documents/BC_IMP/ERC20/bibtoken/contracts/BibToken.sol",
  "compiler": {
    "name": "solc",
    "version": "0.8.10+commit.fc410830.Emscripten.clang"
  },
  "schemaVersion": "3.4.3",
  "updatedAt": "2021-12-09T15:15:38.347Z",
  "networkType": "ethereum",
  "devdoc": {
    "kind": "dev",
    "methods": {},
    "version": 1
  },
  "userdoc": {
    "kind": "user",
    "methods": {},
    "version": 1
  }
}