{
  "contractName": "BuySell",
  "abi": [
    {
      "inputs": [],
      "stateMutability": "nonpayable",
      "type": "constructor"
    },
    {
      "anonymous": false,
      "inputs": [
        {
          "indexed": false,
          "internalType": "address",
          "name": "buyer",
          "type": "address"
        },
        {
          "indexed": false,
          "internalType": "uint256",
          "name": "amountOfETH",
          "type": "uint256"
        },
        {
          "indexed": false,
          "internalType": "uint256",
          "name": "amountOfTokens",
          "type": "uint256"
        }
      ],
      "name": "BuyTokens",
      "type": "event"
    },
    {
      "inputs": [],
      "name": "tokensPerEth",
      "outputs": [
        {
          "internalType": "uint256",
          "name": "",
          "type": "uint256"
        }
      ],
      "stateMutability": "view",
      "type": "function",
      "constant": true
    },
    {
      "inputs": [],
      "name": "buyTokens",
      "outputs": [
        {
          "internalType": "uint256",
          "name": "",
          "type": "uint256"
        }
      ],
      "stateMutability": "payable",
      "type": "function",
      "payable": true
    },
    {
      "inputs": [],
      "name": "withdraw",
      "outputs": [],
      "stateMutability": "nonpayable",
      "type": "function"
    }
  ],
  "bytecode": "0x6080604052606460025534801561001557600080fd5b50604051610022906100c4565b604051809103906000f08015801561003e573d6000803e3d6000fd5b506000806101000a81548173ffffffffffffffffffffffffffffffffffffffff021916908373ffffffffffffffffffffffffffffffffffffffff16021790555033600160006101000a81548173ffffffffffffffffffffffffffffffffffffffff021916908373ffffffffffffffffffffffffffffffffffffffff1602179055506100d1565b61121c80610b3083390190565b610a50806100e06000396000f3fe6080604052600436106100345760003560e01c80633ccfd60b14610039578063cbdd69b514610050578063d0febe4c1461007b575b600080fd5b34801561004557600080fd5b5061004e610099565b005b34801561005c57600080fd5b5061006561024f565b60405161007291906104cc565b60405180910390f35b610083610255565b60405161009091906104cc565b60405180910390f35b600160009054906101000a900473ffffffffffffffffffffffffffffffffffffffff1673ffffffffffffffffffffffffffffffffffffffff163373ffffffffffffffffffffffffffffffffffffffff1614610129576040517f08c379a000000000000000000000000000000000000000000000000000000000815260040161012090610544565b60405180910390fd5b60003073ffffffffffffffffffffffffffffffffffffffff1631905060008111610188576040517f08c379a000000000000000000000000000000000000000000000000000000000815260040161017f906105d6565b60405180910390fd5b60003373ffffffffffffffffffffffffffffffffffffffff163073ffffffffffffffffffffffffffffffffffffffff16316040516101c590610627565b60006040518083038185875af1925050503d8060008114610202576040519150601f19603f3d011682016040523d82523d6000602084013e610207565b606091505b505090508061024b576040517f08c379a0000000000000000000000000000000000000000000000000000000008152600401610242906106ae565b60405180910390fd5b5050565b60025481565b6000803411610299576040517f08c379a00000000000000000000000000000000000000000000000000000000081526004016102909061071a565b60405180910390fd5b6000600254346102a99190610769565b905060008060009054906101000a900473ffffffffffffffffffffffffffffffffffffffff1673ffffffffffffffffffffffffffffffffffffffff166370a08231306040518263ffffffff1660e01b81526004016103079190610804565b602060405180830381865afa158015610324573d6000803e3d6000fd5b505050506040513d601f19601f820116820180604052508101906103489190610850565b905081811161038c576040517f08c379a0000000000000000000000000000000000000000000000000000000008152600401610383906108c9565b60405180910390fd5b60008060009054906101000a900473ffffffffffffffffffffffffffffffffffffffff1673ffffffffffffffffffffffffffffffffffffffff1663a9059cbb33856040518363ffffffff1660e01b81526004016103ea9291906108e9565b6020604051808303816000875af1158015610409573d6000803e3d6000fd5b505050506040513d601f19601f8201168201806040525081019061042d919061094a565b90508061046f576040517f08c379a0000000000000000000000000000000000000000000000000000000008152600401610466906109c3565b60405180910390fd5b7f0a37b72bb67eee30e09084cf386f8a17817c57f620c3ab95fb25d6a20356ec773334856040516104a2939291906109e3565b60405180910390a182935050505090565b6000819050919050565b6104c6816104b3565b82525050565b60006020820190506104e160008301846104bd565b92915050565b600082825260208201905092915050565b7f4f6e6c792061646d696e2063616e207769746864726177000000000000000000600082015250565b600061052e6017836104e7565b9150610539826104f8565b602082019050919050565b6000602082019050818103600083015261055d81610521565b9050919050565b7f4f776e657220686173206e6f742062616c616e636520746f207769746864726160008201527f7700000000000000000000000000000000000000000000000000000000000000602082015250565b60006105c06021836104e7565b91506105cb82610564565b604082019050919050565b600060208201905081810360008301526105ef816105b3565b9050919050565b600081905092915050565b50565b60006106116000836105f6565b915061061c82610601565b600082019050919050565b600061063282610604565b9150819050919050565b7f4661696c656420746f2073656e6420757365722062616c616e6365206261636b60008201527f20746f20746865206f776e657200000000000000000000000000000000000000602082015250565b6000610698602d836104e7565b91506106a38261063c565b604082019050919050565b600060208201905081810360008301526106c78161068b565b9050919050565b7f496e73756666696369656e74204554482073656e742e00000000000000000000600082015250565b60006107046016836104e7565b915061070f826106ce565b602082019050919050565b60006020820190508181036000830152610733816106f7565b9050919050565b7f4e487b7100000000000000000000000000000000000000000000000000000000600052601160045260246000fd5b6000610774826104b3565b915061077f836104b3565b9250817fffffffffffffffffffffffffffffffffffffffffffffffffffffffffffffffff04831182151516156107b8576107b761073a565b5b828202905092915050565b600073ffffffffffffffffffffffffffffffffffffffff82169050919050565b60006107ee826107c3565b9050919050565b6107fe816107e3565b82525050565b600060208201905061081960008301846107f5565b92915050565b600080fd5b61082d816104b3565b811461083857600080fd5b50565b60008151905061084a81610824565b92915050565b6000602082840312156108665761086561081f565b5b60006108748482850161083b565b91505092915050565b7f496e73756666696369656e7420746f6b656e7300000000000000000000000000600082015250565b60006108b36013836104e7565b91506108be8261087d565b602082019050919050565b600060208201905081810360008301526108e2816108a6565b9050919050565b60006040820190506108fe60008301856107f5565b61090b60208301846104bd565b9392505050565b60008115159050919050565b61092781610912565b811461093257600080fd5b50565b6000815190506109448161091e565b92915050565b6000602082840312156109605761095f61081f565b5b600061096e84828501610935565b91505092915050565b7f4572726f72207472616e7366657272696e6720746f6b656e0000000000000000600082015250565b60006109ad6018836104e7565b91506109b882610977565b602082019050919050565b600060208201905081810360008301526109dc816109a0565b9050919050565b60006060820190506109f860008301866107f5565b610a0560208301856104bd565b610a1260408301846104bd565b94935050505056fea2646970667358221220dcabbf00ad654cd698eefffd173c442946319d37f0c679336d3f6af84092ab7564736f6c634300080a0033608060405234801561001057600080fd5b5033600360006101000a81548173ffffffffffffffffffffffffffffffffffffffff021916908373ffffffffffffffffffffffffffffffffffffffff16021790555069d3c21bcecceda1000000600081905550600054600160003373ffffffffffffffffffffffffffffffffffffffff1673ffffffffffffffffffffffffffffffffffffffff16815260200190815260200160002081905550611164806100b86000396000f3fe60806040526004361061008a5760003560e01c8063313ce56711610059578063313ce5671461016057806370a082311461018b5780638da5cb5b146101c857806395d89b41146101f3578063a9059cbb1461021e5761008b565b806306fdde0314610090578063095ea7b3146100bb57806318160ddd146100f857806323b872dd146101235761008b565b5b600080fd5b34801561009c57600080fd5b506100a561025b565b6040516100b29190610cfd565b60405180910390f35b3480156100c757600080fd5b506100e260048036038101906100dd9190610db8565b610294565b6040516100ef9190610e13565b60405180910390f35b34801561010457600080fd5b5061010d610496565b60405161011a9190610e3d565b60405180910390f35b34801561012f57600080fd5b5061014a60048036038101906101459190610e58565b61049c565b6040516101579190610e13565b60405180910390f35b34801561016c57600080fd5b50610175610888565b6040516101829190610e3d565b60405180910390f35b34801561019757600080fd5b506101b260048036038101906101ad9190610eab565b61088d565b6040516101bf9190610e3d565b60405180910390f35b3480156101d457600080fd5b506101dd6108d6565b6040516101ea9190610ee7565b60405180910390f35b3480156101ff57600080fd5b506102086108fc565b6040516102159190610cfd565b60405180910390f35b34801561022a57600080fd5b5061024560048036038101906102409190610db8565b610935565b6040516102529190610e13565b60405180910390f35b6040518060400160405280600c81526020017f4269626861736820636f696e000000000000000000000000000000000000000081525081565b600081600160003373ffffffffffffffffffffffffffffffffffffffff1673ffffffffffffffffffffffffffffffffffffffff168152602001908152602001600020541015610318576040517f08c379a000000000000000000000000000000000000000000000000000000000815260040161030f90610f4e565b60405180910390fd5b6103a782600260003373ffffffffffffffffffffffffffffffffffffffff1673ffffffffffffffffffffffffffffffffffffffff16815260200190815260200160002060008673ffffffffffffffffffffffffffffffffffffffff1673ffffffffffffffffffffffffffffffffffffffff16815260200190815260200160002054610c1190919063ffffffff16565b600260003373ffffffffffffffffffffffffffffffffffffffff1673ffffffffffffffffffffffffffffffffffffffff16815260200190815260200160002060008573ffffffffffffffffffffffffffffffffffffffff1673ffffffffffffffffffffffffffffffffffffffff168152602001908152602001600020819055508273ffffffffffffffffffffffffffffffffffffffff163373ffffffffffffffffffffffffffffffffffffffff167f8c5be1e5ebec7d5bd14f71427d1e84f3dd0314c0f7b2291e5b200ac8c7c3b925846040516104849190610e3d565b60405180910390a36001905092915050565b60005481565b600081600160008673ffffffffffffffffffffffffffffffffffffffff1673ffffffffffffffffffffffffffffffffffffffff168152602001908152602001600020541015610520576040517f08c379a000000000000000000000000000000000000000000000000000000000815260040161051790610fba565b60405180910390fd5b81600260008673ffffffffffffffffffffffffffffffffffffffff1673ffffffffffffffffffffffffffffffffffffffff16815260200190815260200160002060008573ffffffffffffffffffffffffffffffffffffffff1673ffffffffffffffffffffffffffffffffffffffff1681526020019081526020016000205410156105df576040517f08c379a00000000000000000000000000000000000000000000000000000000081526004016105d690611026565b60405180910390fd5b61063182600160008773ffffffffffffffffffffffffffffffffffffffff1673ffffffffffffffffffffffffffffffffffffffff16815260200190815260200160002054610c3d90919063ffffffff16565b600160008673ffffffffffffffffffffffffffffffffffffffff1673ffffffffffffffffffffffffffffffffffffffff168152602001908152602001600020819055506106c682600160008673ffffffffffffffffffffffffffffffffffffffff1673ffffffffffffffffffffffffffffffffffffffff16815260200190815260200160002054610c1190919063ffffffff16565b600160008573ffffffffffffffffffffffffffffffffffffffff1673ffffffffffffffffffffffffffffffffffffffff1681526020019081526020016000208190555061079882600260008773ffffffffffffffffffffffffffffffffffffffff1673ffffffffffffffffffffffffffffffffffffffff16815260200190815260200160002060008673ffffffffffffffffffffffffffffffffffffffff1673ffffffffffffffffffffffffffffffffffffffff16815260200190815260200160002054610c3d90919063ffffffff16565b600260008673ffffffffffffffffffffffffffffffffffffffff1673ffffffffffffffffffffffffffffffffffffffff16815260200190815260200160002060008573ffffffffffffffffffffffffffffffffffffffff1673ffffffffffffffffffffffffffffffffffffffff168152602001908152602001600020819055508273ffffffffffffffffffffffffffffffffffffffff168473ffffffffffffffffffffffffffffffffffffffff167fddf252ad1be2c89b69c2b068fc378daa952ba7f163c4a11628f55a4df523b3ef846040516108759190610e3d565b60405180910390a3600190509392505050565b601281565b6000600160008373ffffffffffffffffffffffffffffffffffffffff1673ffffffffffffffffffffffffffffffffffffffff168152602001908152602001600020549050919050565b600360009054906101000a900473ffffffffffffffffffffffffffffffffffffffff1681565b6040518060400160405280600381526020017f424942000000000000000000000000000000000000000000000000000000000081525081565b600081600160003373ffffffffffffffffffffffffffffffffffffffff1673ffffffffffffffffffffffffffffffffffffffff1681526020019081526020016000205410156109b9576040517f08c379a00000000000000000000000000000000000000000000000000000000081526004016109b090610f4e565b60405180910390fd5b81600260003373ffffffffffffffffffffffffffffffffffffffff1673ffffffffffffffffffffffffffffffffffffffff16815260200190815260200160002060008573ffffffffffffffffffffffffffffffffffffffff1673ffffffffffffffffffffffffffffffffffffffff168152602001908152602001600020541015610a78576040517f08c379a0000000000000000000000000000000000000000000000000000000008152600401610a6f90611026565b60405180910390fd5b610aca82600160003373ffffffffffffffffffffffffffffffffffffffff1673ffffffffffffffffffffffffffffffffffffffff16815260200190815260200160002054610c3d90919063ffffffff16565b600160003373ffffffffffffffffffffffffffffffffffffffff1673ffffffffffffffffffffffffffffffffffffffff16815260200190815260200160002081905550610b5f82600160008673ffffffffffffffffffffffffffffffffffffffff1673ffffffffffffffffffffffffffffffffffffffff16815260200190815260200160002054610c1190919063ffffffff16565b600160008573ffffffffffffffffffffffffffffffffffffffff1673ffffffffffffffffffffffffffffffffffffffff168152602001908152602001600020819055508273ffffffffffffffffffffffffffffffffffffffff163373ffffffffffffffffffffffffffffffffffffffff167fddf252ad1be2c89b69c2b068fc378daa952ba7f163c4a11628f55a4df523b3ef84604051610bff9190610e3d565b60405180910390a36001905092915050565b6000808284610c209190611075565b905083811015610c3357610c326110cb565b5b8091505092915050565b600082821115610c5057610c4f6110cb565b5b8183610c5c91906110fa565b905092915050565b600081519050919050565b600082825260208201905092915050565b60005b83811015610c9e578082015181840152602081019050610c83565b83811115610cad576000848401525b50505050565b6000601f19601f8301169050919050565b6000610ccf82610c64565b610cd98185610c6f565b9350610ce9818560208601610c80565b610cf281610cb3565b840191505092915050565b60006020820190508181036000830152610d178184610cc4565b905092915050565b600080fd5b600073ffffffffffffffffffffffffffffffffffffffff82169050919050565b6000610d4f82610d24565b9050919050565b610d5f81610d44565b8114610d6a57600080fd5b50565b600081359050610d7c81610d56565b92915050565b6000819050919050565b610d9581610d82565b8114610da057600080fd5b50565b600081359050610db281610d8c565b92915050565b60008060408385031215610dcf57610dce610d1f565b5b6000610ddd85828601610d6d565b9250506020610dee85828601610da3565b9150509250929050565b60008115159050919050565b610e0d81610df8565b82525050565b6000602082019050610e286000830184610e04565b92915050565b610e3781610d82565b82525050565b6000602082019050610e526000830184610e2e565b92915050565b600080600060608486031215610e7157610e70610d1f565b5b6000610e7f86828701610d6d565b9350506020610e9086828701610d6d565b9250506040610ea186828701610da3565b9150509250925092565b600060208284031215610ec157610ec0610d1f565b5b6000610ecf84828501610d6d565b91505092915050565b610ee181610d44565b82525050565b6000602082019050610efc6000830184610ed8565b92915050565b7f496e73756666696369656e742062616c616e6365000000000000000000000000600082015250565b6000610f38601483610c6f565b9150610f4382610f02565b602082019050919050565b60006020820190508181036000830152610f6781610f2b565b9050919050565b7f496e73756666696369656e742066756e64732e00000000000000000000000000600082015250565b6000610fa4601383610c6f565b9150610faf82610f6e565b602082019050919050565b60006020820190508181036000830152610fd381610f97565b9050919050565b7f556e617070726f766564207472616e73616374696f6e2e000000000000000000600082015250565b6000611010601783610c6f565b915061101b82610fda565b602082019050919050565b6000602082019050818103600083015261103f81611003565b9050919050565b7f4e487b7100000000000000000000000000000000000000000000000000000000600052601160045260246000fd5b600061108082610d82565b915061108b83610d82565b9250827fffffffffffffffffffffffffffffffffffffffffffffffffffffffffffffffff038211156110c0576110bf611046565b5b828201905092915050565b7f4e487b7100000000000000000000000000000000000000000000000000000000600052600160045260246000fd5b600061110582610d82565b915061111083610d82565b92508282101561112357611122611046565b5b82820390509291505056fea26469706673582212200bf182645786fd7712a4c56d19834ce0071a6e688839d2d119e45f88b411e47864736f6c634300080a0033",
  "immutableReferences": {},
  "source": "pragma solidity ^0.8.0;\n\nimport \"./BibToken.sol\";\n\ncontract BuySell {\n    BibToken bibToken;\n    address owner;\n    // token price for ETH\n    uint256 public tokensPerEth = 100;\n\n    // Event that logs buy operation\n    event BuyTokens(address buyer, uint256 amountOfETH, uint256 amountOfTokens);\n\n    constructor() {\n        bibToken = new BibToken();\n        owner = msg.sender;\n    }\n\n    modifier onlyOwner() {\n        require(msg.sender == owner, \"Only admin can withdraw\");\n        _;\n    }\n\n    function buyTokens() public payable returns (uint256) {\n        require(msg.value > 0, \"Insufficient ETH sent.\");\n        uint256 amountToBuy = msg.value * tokensPerEth;\n        uint256 vendorBalance = bibToken.balanceOf(address(this));\n        require(vendorBalance > amountToBuy, \"Insufficient tokens\");\n        bool sent = bibToken.transfer(msg.sender, amountToBuy);\n        require(sent, \"Error transferring token\");\n        emit BuyTokens(msg.sender, msg.value, amountToBuy);\n        return amountToBuy;\n    }\n\n    function withdraw() public onlyOwner {\n        uint256 ownerBalance = address(this).balance;\n        require(ownerBalance > 0, \"Owner has not balance to withdraw\");\n\n        (bool sent, ) = msg.sender.call{value: address(this).balance}(\"\");\n        require(sent, \"Failed to send user balance back to the owner\");\n    }\n}\n",
  "sourcePath": "/Users/bibhashsingh/Documents/BC_IMP/ERC20/bibtoken/contracts/BuySell.sol",
  "compiler": {
    "name": "solc",
    "version": "0.8.10+commit.fc410830.Emscripten.clang"
  },
  "schemaVersion": "3.4.3",
  "updatedAt": "2021-12-07T14:39:47.484Z",
  "networkType": "ethereum",
  "devdoc": {
    "kind": "dev",
    "methods": {},
    "version": 1
  },
  "userdoc": {
    "kind": "user",
    "methods": {},
    "version": 1
  }
}