{
  "contractName": "BuySell",
  "abi": [
    {
      "inputs": [
        {
          "internalType": "contract BibToken",
          "name": "_bibToken",
          "type": "address"
        }
      ],
      "stateMutability": "nonpayable",
      "type": "constructor"
    },
    {
      "anonymous": false,
      "inputs": [
        {
          "indexed": false,
          "internalType": "address",
          "name": "buyer",
          "type": "address"
        },
        {
          "indexed": false,
          "internalType": "uint256",
          "name": "amountOfETH",
          "type": "uint256"
        },
        {
          "indexed": false,
          "internalType": "uint256",
          "name": "amountOfTokens",
          "type": "uint256"
        }
      ],
      "name": "BuyTokens",
      "type": "event"
    },
    {
      "inputs": [],
      "name": "tokensPerEth",
      "outputs": [
        {
          "internalType": "uint256",
          "name": "",
          "type": "uint256"
        }
      ],
      "stateMutability": "view",
      "type": "function",
      "constant": true
    },
    {
      "inputs": [],
      "name": "buyTokens",
      "outputs": [
        {
          "internalType": "uint256",
          "name": "",
          "type": "uint256"
        }
      ],
      "stateMutability": "payable",
      "type": "function",
      "payable": true
    },
    {
      "inputs": [],
      "name": "withdraw",
      "outputs": [],
      "stateMutability": "nonpayable",
      "type": "function"
    }
  ],
  "bytecode": "0x6080604052606460025534801561001557600080fd5b50604051610bbf380380610bbf83398181016040528101906100379190610133565b806000806101000a81548173ffffffffffffffffffffffffffffffffffffffff021916908373ffffffffffffffffffffffffffffffffffffffff16021790555033600160006101000a81548173ffffffffffffffffffffffffffffffffffffffff021916908373ffffffffffffffffffffffffffffffffffffffff16021790555050610160565b600080fd5b600073ffffffffffffffffffffffffffffffffffffffff82169050919050565b60006100ee826100c3565b9050919050565b6000610100826100e3565b9050919050565b610110816100f5565b811461011b57600080fd5b50565b60008151905061012d81610107565b92915050565b600060208284031215610149576101486100be565b5b60006101578482850161011e565b91505092915050565b610a508061016f6000396000f3fe6080604052600436106100345760003560e01c80633ccfd60b14610039578063cbdd69b514610050578063d0febe4c1461007b575b600080fd5b34801561004557600080fd5b5061004e610099565b005b34801561005c57600080fd5b5061006561024f565b60405161007291906104cc565b60405180910390f35b610083610255565b60405161009091906104cc565b60405180910390f35b600160009054906101000a900473ffffffffffffffffffffffffffffffffffffffff1673ffffffffffffffffffffffffffffffffffffffff163373ffffffffffffffffffffffffffffffffffffffff1614610129576040517f08c379a000000000000000000000000000000000000000000000000000000000815260040161012090610544565b60405180910390fd5b60003073ffffffffffffffffffffffffffffffffffffffff1631905060008111610188576040517f08c379a000000000000000000000000000000000000000000000000000000000815260040161017f906105d6565b60405180910390fd5b60003373ffffffffffffffffffffffffffffffffffffffff163073ffffffffffffffffffffffffffffffffffffffff16316040516101c590610627565b60006040518083038185875af1925050503d8060008114610202576040519150601f19603f3d011682016040523d82523d6000602084013e610207565b606091505b505090508061024b576040517f08c379a0000000000000000000000000000000000000000000000000000000008152600401610242906106ae565b60405180910390fd5b5050565b60025481565b6000803411610299576040517f08c379a00000000000000000000000000000000000000000000000000000000081526004016102909061071a565b60405180910390fd5b6000600254346102a99190610769565b905060008060009054906101000a900473ffffffffffffffffffffffffffffffffffffffff1673ffffffffffffffffffffffffffffffffffffffff166370a08231306040518263ffffffff1660e01b81526004016103079190610804565b602060405180830381865afa158015610324573d6000803e3d6000fd5b505050506040513d601f19601f820116820180604052508101906103489190610850565b905081811161038c576040517f08c379a0000000000000000000000000000000000000000000000000000000008152600401610383906108c9565b60405180910390fd5b60008060009054906101000a900473ffffffffffffffffffffffffffffffffffffffff1673ffffffffffffffffffffffffffffffffffffffff1663a9059cbb33856040518363ffffffff1660e01b81526004016103ea9291906108e9565b6020604051808303816000875af1158015610409573d6000803e3d6000fd5b505050506040513d601f19601f8201168201806040525081019061042d919061094a565b90508061046f576040517f08c379a0000000000000000000000000000000000000000000000000000000008152600401610466906109c3565b60405180910390fd5b7f0a37b72bb67eee30e09084cf386f8a17817c57f620c3ab95fb25d6a20356ec773334856040516104a2939291906109e3565b60405180910390a182935050505090565b6000819050919050565b6104c6816104b3565b82525050565b60006020820190506104e160008301846104bd565b92915050565b600082825260208201905092915050565b7f4f6e6c792061646d696e2063616e207769746864726177000000000000000000600082015250565b600061052e6017836104e7565b9150610539826104f8565b602082019050919050565b6000602082019050818103600083015261055d81610521565b9050919050565b7f4f776e657220686173206e6f742062616c616e636520746f207769746864726160008201527f7700000000000000000000000000000000000000000000000000000000000000602082015250565b60006105c06021836104e7565b91506105cb82610564565b604082019050919050565b600060208201905081810360008301526105ef816105b3565b9050919050565b600081905092915050565b50565b60006106116000836105f6565b915061061c82610601565b600082019050919050565b600061063282610604565b9150819050919050565b7f4661696c656420746f2073656e6420757365722062616c616e6365206261636b60008201527f20746f20746865206f776e657200000000000000000000000000000000000000602082015250565b6000610698602d836104e7565b91506106a38261063c565b604082019050919050565b600060208201905081810360008301526106c78161068b565b9050919050565b7f496e73756666696369656e74204554482073656e742e00000000000000000000600082015250565b60006107046016836104e7565b915061070f826106ce565b602082019050919050565b60006020820190508181036000830152610733816106f7565b9050919050565b7f4e487b7100000000000000000000000000000000000000000000000000000000600052601160045260246000fd5b6000610774826104b3565b915061077f836104b3565b9250817fffffffffffffffffffffffffffffffffffffffffffffffffffffffffffffffff04831182151516156107b8576107b761073a565b5b828202905092915050565b600073ffffffffffffffffffffffffffffffffffffffff82169050919050565b60006107ee826107c3565b9050919050565b6107fe816107e3565b82525050565b600060208201905061081960008301846107f5565b92915050565b600080fd5b61082d816104b3565b811461083857600080fd5b50565b60008151905061084a81610824565b92915050565b6000602082840312156108665761086561081f565b5b60006108748482850161083b565b91505092915050565b7f496e73756666696369656e7420746f6b656e7300000000000000000000000000600082015250565b60006108b36013836104e7565b91506108be8261087d565b602082019050919050565b600060208201905081810360008301526108e2816108a6565b9050919050565b60006040820190506108fe60008301856107f5565b61090b60208301846104bd565b9392505050565b60008115159050919050565b61092781610912565b811461093257600080fd5b50565b6000815190506109448161091e565b92915050565b6000602082840312156109605761095f61081f565b5b600061096e84828501610935565b91505092915050565b7f4572726f72207472616e7366657272696e6720746f6b656e0000000000000000600082015250565b60006109ad6018836104e7565b91506109b882610977565b602082019050919050565b600060208201905081810360008301526109dc816109a0565b9050919050565b60006060820190506109f860008301866107f5565b610a0560208301856104bd565b610a1260408301846104bd565b94935050505056fea26469706673582212201378bb72fc1ce094ad62b4213976643ca1249ed58e9ce08ce9d0bb9efe76446a64736f6c634300080a0033",
  "immutableReferences": {},
  "source": "pragma solidity ^0.8.0;\n\nimport \"./BibToken.sol\";\n\ncontract BuySell {\n    BibToken bibToken;\n    address owner;\n    // token price for ETH\n    uint256 public tokensPerEth = 100;\n    // uint256 public tokensPerEth = 1;\n\n    // Event that logs buy operation\n    event BuyTokens(address buyer, uint256 amountOfETH, uint256 amountOfTokens);\n\n    constructor(BibToken _bibToken) {\n        bibToken = _bibToken;\n        owner = msg.sender;\n    }\n\n    modifier onlyOwner() {\n        require(msg.sender == owner, \"Only admin can withdraw\");\n        _;\n    }\n\n    function buyTokens() public payable returns (uint256) {\n        require(msg.value > 0, \"Insufficient ETH sent.\");\n        uint256 amountToBuy = msg.value * tokensPerEth;\n        uint256 vendorBalance = bibToken.balanceOf(address(this));\n        require(vendorBalance > amountToBuy, \"Insufficient tokens\");\n        bool sent = bibToken.transfer(msg.sender, amountToBuy);\n        require(sent, \"Error transferring token\");\n        emit BuyTokens(msg.sender, msg.value, amountToBuy);\n        return amountToBuy;\n    }\n\n    function withdraw() public onlyOwner {\n        uint256 ownerBalance = address(this).balance;\n        require(ownerBalance > 0, \"Owner has not balance to withdraw\");\n        (bool sent, ) = msg.sender.call{value: address(this).balance}(\"\");\n        require(sent, \"Failed to send user balance back to the owner\");\n    }\n}\n",
  "sourcePath": "/Users/bibhashsingh/Documents/BC_IMP/ERC20/bibtoken/contracts/BuySell.sol",
  "compiler": {
    "name": "solc",
    "version": "0.8.10+commit.fc410830.Emscripten.clang"
  },
  "schemaVersion": "3.4.3",
  "updatedAt": "2021-12-10T10:07:26.712Z",
  "networkType": "ethereum",
  "devdoc": {
    "kind": "dev",
    "methods": {},
    "version": 1
  },
  "userdoc": {
    "kind": "user",
    "methods": {},
    "version": 1
  }
}